{
  "_format": "hh-sol-artifact-1",
  "contractName": "BMAC",
  "sourceName": "contracts/BMAC.sol",
  "abi": [
    {
      "inputs": [],
      "stateMutability": "nonpayable",
      "type": "constructor"
    },
    {
      "anonymous": false,
      "inputs": [
        {
          "indexed": true,
          "internalType": "address",
          "name": "from",
          "type": "address"
        },
        {
          "indexed": false,
          "internalType": "uint256",
          "name": "timestamp",
          "type": "uint256"
        },
        {
          "indexed": false,
          "internalType": "string",
          "name": "name",
          "type": "string"
        },
        {
          "indexed": false,
          "internalType": "string",
          "name": "message",
          "type": "string"
        }
      ],
      "name": "NewMemo",
      "type": "event"
    },
    {
      "inputs": [
        {
          "internalType": "string",
          "name": "_name",
          "type": "string"
        },
        {
          "internalType": "string",
          "name": "_message",
          "type": "string"
        }
      ],
      "name": "buyCoffee",
      "outputs": [],
      "stateMutability": "payable",
      "type": "function"
    },
    {
      "inputs": [],
      "name": "getMemos",
      "outputs": [
        {
          "components": [
            {
              "internalType": "address",
              "name": "from",
              "type": "address"
            },
            {
              "internalType": "uint256",
              "name": "timestamp",
              "type": "uint256"
            },
            {
              "internalType": "string",
              "name": "name",
              "type": "string"
            },
            {
              "internalType": "string",
              "name": "message",
              "type": "string"
            }
          ],
          "internalType": "struct BMAC.Memo[]",
          "name": "",
          "type": "tuple[]"
        }
      ],
      "stateMutability": "view",
      "type": "function"
    },
    {
      "inputs": [
        {
          "internalType": "uint256",
          "name": "",
          "type": "uint256"
        }
      ],
      "name": "memos",
      "outputs": [
        {
          "internalType": "address",
          "name": "from",
          "type": "address"
        },
        {
          "internalType": "uint256",
          "name": "timestamp",
          "type": "uint256"
        },
        {
          "internalType": "string",
          "name": "name",
          "type": "string"
        },
        {
          "internalType": "string",
          "name": "message",
          "type": "string"
        }
      ],
      "stateMutability": "view",
      "type": "function"
    },
    {
      "inputs": [],
      "name": "withdraw",
      "outputs": [],
      "stateMutability": "nonpayable",
      "type": "function"
    }
  ],
  "bytecode": "0x608060405234801561001057600080fd5b50600180546001600160a01b0319163317905561092d806100326000396000f3fe60806040526004361061003f5760003560e01c8063204206e1146100445780633ccfd60b14610059578063865c51721461006e578063e8dfdf0414610099575b600080fd5b6100576100523660046105cb565b6100c9565b005b34801561006557600080fd5b506100576101fb565b34801561007a57600080fd5b5061008361022e565b6040516100909190610675565b60405180910390f35b3480156100a557600080fd5b506100b96100b436600461071c565b6103d1565b6040516100909493929190610735565b604080516080810182523381524260208201908152918101848152606082018490526000805460018101825590805282517f290decd9548b62a8d60345a988386fc84ba6bc95484008f6362f93160ef3e563600490920291820180546001600160a01b0319166001600160a01b0390921691909117815593517f290decd9548b62a8d60345a988386fc84ba6bc95484008f6362f93160ef3e56482015590519192917f290decd9548b62a8d60345a988386fc84ba6bc95484008f6362f93160ef3e5659091019061019a9082610802565b50606082015160038201906101af9082610802565b505050336001600160a01b03167fc56140e05f516509ae28110e0f72e17558a7561630dad2647c3ae87d986e365c4284846040516101ef939291906108c2565b60405180910390a25050565b6001546040516001600160a01b03909116904780156108fc02916000818181858888f1935050505061022c57600080fd5b565b60606000805480602002602001604051908101604052809291908181526020016000905b828210156103c8576000848152602090819020604080516080810182526004860290920180546001600160a01b03168352600181015493830193909352600283018054929392918401916102a590610779565b80601f01602080910402602001604051908101604052809291908181526020018280546102d190610779565b801561031e5780601f106102f35761010080835404028352916020019161031e565b820191906000526020600020905b81548152906001019060200180831161030157829003601f168201915b5050505050815260200160038201805461033790610779565b80601f016020809104026020016040519081016040528092919081815260200182805461036390610779565b80156103b05780601f10610385576101008083540402835291602001916103b0565b820191906000526020600020905b81548152906001019060200180831161039357829003601f168201915b50505050508152505081526020019060010190610252565b50505050905090565b600081815481106103e157600080fd5b60009182526020909120600490910201805460018201546002830180546001600160a01b03909316945090929161041790610779565b80601f016020809104026020016040519081016040528092919081815260200182805461044390610779565b80156104905780601f1061046557610100808354040283529160200191610490565b820191906000526020600020905b81548152906001019060200180831161047357829003601f168201915b5050505050908060030180546104a590610779565b80601f01602080910402602001604051908101604052809291908181526020018280546104d190610779565b801561051e5780601f106104f35761010080835404028352916020019161051e565b820191906000526020600020905b81548152906001019060200180831161050157829003601f168201915b5050505050905084565b634e487b7160e01b600052604160045260246000fd5b600082601f83011261054f57600080fd5b813567ffffffffffffffff8082111561056a5761056a610528565b604051601f8301601f19908116603f0116810190828211818310171561059257610592610528565b816040528381528660208588010111156105ab57600080fd5b836020870160208301376000602085830101528094505050505092915050565b600080604083850312156105de57600080fd5b823567ffffffffffffffff808211156105f657600080fd5b6106028683870161053e565b9350602085013591508082111561061857600080fd5b506106258582860161053e565b9150509250929050565b6000815180845260005b8181101561065557602081850181015186830182015201610639565b506000602082860101526020601f19601f83011685010191505092915050565b60006020808301818452808551808352604092508286019150828160051b87010184880160005b8381101561070e57888303603f19018552815180516001600160a01b031684528781015188850152868101516080888601819052906106dd8287018261062f565b915050606080830151925085820381870152506106fa818361062f565b96890196945050509086019060010161069c565b509098975050505050505050565b60006020828403121561072e57600080fd5b5035919050565b60018060a01b038516815283602082015260806040820152600061075c608083018561062f565b828103606084015261076e818561062f565b979650505050505050565b600181811c9082168061078d57607f821691505b6020821081036107ad57634e487b7160e01b600052602260045260246000fd5b50919050565b601f8211156107fd57600081815260208120601f850160051c810160208610156107da5750805b601f850160051c820191505b818110156107f9578281556001016107e6565b5050505b505050565b815167ffffffffffffffff81111561081c5761081c610528565b6108308161082a8454610779565b846107b3565b602080601f831160018114610865576000841561084d5750858301515b600019600386901b1c1916600185901b1785556107f9565b600085815260208120601f198616915b8281101561089457888601518255948401946001909101908401610875565b50858210156108b25787850151600019600388901b60f8161c191681555b5050505050600190811b01905550565b8381526060602082015260006108db606083018561062f565b82810360408401526108ed818561062f565b969550505050505056fea26469706673582212202b03416198d4714985c9feacfa6341b119bae98fd867108dd3f1c6f8dad441f764736f6c63430008100033",
  "linkReferences": {},
  "deployedLinkReferences": {}
}